{
  "_format": "hh-sol-artifact-1",
  "contractName": "Auction",
  "sourceName": "contracts/Auction.sol",
  "abi": [
    {
      "inputs": [
        {
          "internalType": "uint256",
          "name": "_biddingTime",
          "type": "uint256"
        }
      ],
      "stateMutability": "nonpayable",
      "type": "constructor"
    },
    {
      "anonymous": false,
      "inputs": [
        {
          "indexed": true,
          "internalType": "address",
          "name": "winner",
          "type": "address"
        },
        {
          "indexed": false,
          "internalType": "uint256",
          "name": "amount",
          "type": "uint256"
        }
      ],
      "name": "AuctionEnded",
      "type": "event"
    },
    {
      "anonymous": false,
      "inputs": [
        {
          "indexed": true,
          "internalType": "address",
          "name": "bidder",
          "type": "address"
        },
        {
          "indexed": false,
          "internalType": "uint256",
          "name": "amount",
          "type": "uint256"
        }
      ],
      "name": "BidPlaced",
      "type": "event"
    },
    {
      "inputs": [],
      "name": "auctionEndTime",
      "outputs": [
        {
          "internalType": "uint256",
          "name": "",
          "type": "uint256"
        }
      ],
      "stateMutability": "view",
      "type": "function"
    },
    {
      "inputs": [],
      "name": "auctioneer",
      "outputs": [
        {
          "internalType": "address",
          "name": "",
          "type": "address"
        }
      ],
      "stateMutability": "view",
      "type": "function"
    },
    {
      "inputs": [
        {
          "internalType": "address",
          "name": "",
          "type": "address"
        }
      ],
      "name": "bidsByBidder",
      "outputs": [
        {
          "internalType": "address",
          "name": "bidder",
          "type": "address"
        },
        {
          "internalType": "uint256",
          "name": "amount",
          "type": "uint256"
        }
      ],
      "stateMutability": "view",
      "type": "function"
    },
    {
      "inputs": [],
      "name": "charityAddress",
      "outputs": [
        {
          "internalType": "address",
          "name": "",
          "type": "address"
        }
      ],
      "stateMutability": "view",
      "type": "function"
    },
    {
      "inputs": [],
      "name": "endAuction",
      "outputs": [],
      "stateMutability": "nonpayable",
      "type": "function"
    },
    {
      "inputs": [],
      "name": "ended",
      "outputs": [
        {
          "internalType": "bool",
          "name": "",
          "type": "bool"
        }
      ],
      "stateMutability": "view",
      "type": "function"
    },
    {
      "inputs": [
        {
          "internalType": "address",
          "name": "",
          "type": "address"
        }
      ],
      "name": "fundsByBidder",
      "outputs": [
        {
          "internalType": "uint256",
          "name": "",
          "type": "uint256"
        }
      ],
      "stateMutability": "view",
      "type": "function"
    },
    {
      "inputs": [],
      "name": "highestBid",
      "outputs": [
        {
          "internalType": "uint256",
          "name": "",
          "type": "uint256"
        }
      ],
      "stateMutability": "view",
      "type": "function"
    },
    {
      "inputs": [],
      "name": "highestBidder",
      "outputs": [
        {
          "internalType": "address",
          "name": "",
          "type": "address"
        }
      ],
      "stateMutability": "view",
      "type": "function"
    },
    {
      "inputs": [],
      "name": "placeBid",
      "outputs": [],
      "stateMutability": "payable",
      "type": "function"
    },
    {
      "inputs": [],
      "name": "withdraw",
      "outputs": [],
      "stateMutability": "nonpayable",
      "type": "function"
    }
  ],
  "bytecode": "0x608060405234801561001057600080fd5b506040516107ff3803806107ff83398101604081905261002f91610054565b600080546001600160a01b0319163317905561004b814261006d565b60015550610093565b60006020828403121561006657600080fd5b5051919050565b6000821982111561008e57634e487b7160e01b600052601160045260246000fd5b500190565b61075d806100a26000396000f3fe60806040526004361061009c5760003560e01c806391f901571161006457806391f90157146101a2578063afcf2fc4146101c7578063ce10cf80146101ef578063d57bde791461021c578063ecfc7ecc14610232578063fe67a54b1461023a57600080fd5b806312fa6feb146100a15780631a8d5cd5146100d05780633ccfd60b1461012f5780634b449cba146101465780635ec2c7bf1461016a575b600080fd5b3480156100ad57600080fd5b506002546100bb9060ff1681565b60405190151581526020015b60405180910390f35b3480156100dc57600080fd5b506101106100eb3660046106af565b600560205260009081526040902080546001909101546001600160a01b039091169082565b604080516001600160a01b0390931683526020830191909152016100c7565b34801561013b57600080fd5b5061014461024f565b005b34801561015257600080fd5b5061015c60015481565b6040519081526020016100c7565b34801561017657600080fd5b5060005461018a906001600160a01b031681565b6040516001600160a01b0390911681526020016100c7565b3480156101ae57600080fd5b5060025461018a9061010090046001600160a01b031681565b3480156101d357600080fd5b5061018a730b95eaf38e00ab26cb4ba6284726888cf2e5a0e181565b3480156101fb57600080fd5b5061015c61020a3660046106af565b60046020526000908152604090205481565b34801561022857600080fd5b5061015c60035481565b6101446102fb565b34801561024657600080fd5b50610144610583565b33600090815260046020526040902054806102bc5760405162461bcd60e51b815260206004820152602260248201527f4e6f2066756e647320617661696c61626c6520666f7220776974686472617761604482015261361760f11b60648201526084015b60405180910390fd5b336000818152600460205260408082208290555183156108fc0291849190818181858888f193505050501580156102f7573d6000803e3d6000fd5b5050565b60025460ff16156103475760405162461bcd60e51b815260206004820152601660248201527520bab1ba34b7b71030b63932b0b23c9032b73232b21760511b60448201526064016102b3565b60015442106103985760405162461bcd60e51b815260206004820152601860248201527f41756374696f6e20616c726561647920657870697265642e000000000000000060448201526064016102b3565b60006103a56064346106df565b604051909150730b95eaf38e00ab26cb4ba6284726888cf2e5a0e19082156108fc029083906000818181858888f193505050501580156103e9573d6000803e3d6000fd5b50600034116104485760405162461bcd60e51b815260206004820152602560248201527f42696420616d6f756e74206d7573742062652067726561746572207468616e206044820152643d32b9379760d91b60648201526084016102b3565b60035434116104995760405162461bcd60e51b815260206004820152601e60248201527f546865726520697320616c7265616479206120686967686572206269642e000060448201526064016102b3565b60025461010090046001600160a01b0316156104e75760035460025461010090046001600160a01b0316600090815260046020526040812080549091906104e1908490610701565b90915550505b60028054610100600160a81b031916336101008102919091179091553460038190556040805180820182528381526020808201848152600086815260058352849020925183546001600160a01b0319166001600160a01b03909116178355516001929092019190915590519182527f3fabff0a9c3ecd6814702e247fa9733e5d0aa69e3a38590f92cb18f623a2254d910160405180910390a250565b60025460ff166105ce5760405162461bcd60e51b815260206004820152601660248201527520bab1ba34b7b7103737ba103cb2ba1032b73232b21760511b60448201526064016102b3565b60025460ff161561061a5760405162461bcd60e51b815260206004820152601660248201527520bab1ba34b7b71030b63932b0b23c9032b73232b21760511b60448201526064016102b3565b60028054600160ff1990911617908190556003546040519081526101009091046001600160a01b0316907fdaec4582d5d9595688c8c98545fdd1c696d41c6aeaeb636737e84ed2f5c00eda9060200160405180910390a2600080546003546040516001600160a01b039092169281156108fc029290818181858888f193505050501580156106ac573d6000803e3d6000fd5b50565b6000602082840312156106c157600080fd5b81356001600160a01b03811681146106d857600080fd5b9392505050565b6000826106fc57634e487b7160e01b600052601260045260246000fd5b500490565b6000821982111561072257634e487b7160e01b600052601160045260246000fd5b50019056fea26469706673582212202e0354d3e94e49e606a07830a172125d3e9194220e849ebd67ce7c15eba422b464736f6c63430008090033",
  "linkReferences": {},
  "deployedLinkReferences": {}
}